{
  "_format": "hh-sol-artifact-1",
  "contractName": "Raffle",
  "sourceName": "contracts/Raffle.sol",
  "abi": [
    {
      "inputs": [
        {
          "internalType": "address",
          "name": "vrfCoordinatorV2",
          "type": "address"
        },
        {
          "internalType": "uint256",
          "name": "entranceFee",
          "type": "uint256"
        },
        {
          "internalType": "bytes32",
          "name": "gasLane",
          "type": "bytes32"
        },
        {
          "internalType": "uint64",
          "name": "subscriptionId",
          "type": "uint64"
        },
        {
          "internalType": "uint32",
          "name": "callbackGasLimit",
          "type": "uint32"
        },
        {
          "internalType": "uint256",
          "name": "interval",
          "type": "uint256"
        }
      ],
      "stateMutability": "nonpayable",
      "type": "constructor"
    },
    {
      "inputs": [
        {
          "internalType": "address",
          "name": "have",
          "type": "address"
        },
        {
          "internalType": "address",
          "name": "want",
          "type": "address"
        }
      ],
      "name": "OnlyCoordinatorCanFulfill",
      "type": "error"
    },
    {
      "inputs": [],
      "name": "Raffle__NotOpen",
      "type": "error"
    },
    {
      "inputs": [],
      "name": "Raffle__TransferFailed",
      "type": "error"
    },
    {
      "inputs": [
        {
          "internalType": "uint256",
          "name": "currectBalance",
          "type": "uint256"
        },
        {
          "internalType": "uint256",
          "name": "numPlayers",
          "type": "uint256"
        },
        {
          "internalType": "uint256",
          "name": "raffleState",
          "type": "uint256"
        }
      ],
      "name": "Raffle__UpkeepNotNeeded",
      "type": "error"
    },
    {
      "inputs": [],
      "name": "Raffle__notEnoughETHEntered",
      "type": "error"
    },
    {
      "anonymous": false,
      "inputs": [
        {
          "indexed": true,
          "internalType": "address",
          "name": "player",
          "type": "address"
        }
      ],
      "name": "RaffleEnter",
      "type": "event"
    },
    {
      "anonymous": false,
      "inputs": [
        {
          "indexed": true,
          "internalType": "address",
          "name": "winner",
          "type": "address"
        }
      ],
      "name": "Raffle__WinnerPicked",
      "type": "event"
    },
    {
      "anonymous": false,
      "inputs": [
        {
          "indexed": true,
          "internalType": "uint256",
          "name": "requestId",
          "type": "uint256"
        }
      ],
      "name": "RequestedRaffleWinner",
      "type": "event"
    },
    {
      "inputs": [
        {
          "internalType": "bytes",
          "name": "",
          "type": "bytes"
        }
      ],
      "name": "checkUpkeep",
      "outputs": [
        {
          "internalType": "bool",
          "name": "upkeepNeeded",
          "type": "bool"
        },
        {
          "internalType": "bytes",
          "name": "",
          "type": "bytes"
        }
      ],
      "stateMutability": "view",
      "type": "function"
    },
    {
      "inputs": [],
      "name": "enterRaffle",
      "outputs": [],
      "stateMutability": "payable",
      "type": "function"
    },
    {
      "inputs": [],
      "name": "getEntranceFee",
      "outputs": [
        {
          "internalType": "uint256",
          "name": "",
          "type": "uint256"
        }
      ],
      "stateMutability": "view",
      "type": "function"
    },
    {
      "inputs": [],
      "name": "getInterval",
      "outputs": [
        {
          "internalType": "uint256",
          "name": "",
          "type": "uint256"
        }
      ],
      "stateMutability": "view",
      "type": "function"
    },
    {
      "inputs": [],
      "name": "getLatestTimeStamp",
      "outputs": [
        {
          "internalType": "uint256",
          "name": "",
          "type": "uint256"
        }
      ],
      "stateMutability": "view",
      "type": "function"
    },
    {
      "inputs": [],
      "name": "getNumOfPlayers",
      "outputs": [
        {
          "internalType": "uint256",
          "name": "",
          "type": "uint256"
        }
      ],
      "stateMutability": "view",
      "type": "function"
    },
    {
      "inputs": [],
      "name": "getNumWords",
      "outputs": [
        {
          "internalType": "uint256",
          "name": "",
          "type": "uint256"
        }
      ],
      "stateMutability": "pure",
      "type": "function"
    },
    {
      "inputs": [
        {
          "internalType": "uint256",
          "name": "index",
          "type": "uint256"
        }
      ],
      "name": "getPlayers",
      "outputs": [
        {
          "internalType": "address",
          "name": "",
          "type": "address"
        }
      ],
      "stateMutability": "view",
      "type": "function"
    },
    {
      "inputs": [],
      "name": "getRaffleState",
      "outputs": [
        {
          "internalType": "enum Raffle.RaffleState",
          "name": "",
          "type": "uint8"
        }
      ],
      "stateMutability": "view",
      "type": "function"
    },
    {
      "inputs": [],
      "name": "getRecentWinner",
      "outputs": [
        {
          "internalType": "address",
          "name": "",
          "type": "address"
        }
      ],
      "stateMutability": "view",
      "type": "function"
    },
    {
      "inputs": [],
      "name": "getRequestConfirmations",
      "outputs": [
        {
          "internalType": "uint256",
          "name": "",
          "type": "uint256"
        }
      ],
      "stateMutability": "pure",
      "type": "function"
    },
    {
      "inputs": [
        {
          "internalType": "bytes",
          "name": "",
          "type": "bytes"
        }
      ],
      "name": "performUpkeep",
      "outputs": [],
      "stateMutability": "nonpayable",
      "type": "function"
    },
    {
      "inputs": [
        {
          "internalType": "uint256",
          "name": "requestId",
          "type": "uint256"
        },
        {
          "internalType": "uint256[]",
          "name": "randomWords",
          "type": "uint256[]"
        }
      ],
      "name": "rawFulfillRandomWords",
      "outputs": [],
      "stateMutability": "nonpayable",
      "type": "function"
    }
  ],
  "bytecode": "0x6101606040523480156200001257600080fd5b506040516200179438038062001794833981810160405281019062000038919062000294565b858073ffffffffffffffffffffffffffffffffffffffff1660808173ffffffffffffffffffffffffffffffffffffffff1681525050508460a081815250508573ffffffffffffffffffffffffffffffffffffffff1660c08173ffffffffffffffffffffffffffffffffffffffff16815250508360e081815250508267ffffffffffffffff166101008167ffffffffffffffff16815250508163ffffffff166101208163ffffffff16815250506000600160146101000a81548160ff021916908360018111156200010d576200010c62000330565b5b0217905550426002819055508061014081815250505050505050506200035f565b600080fd5b600073ffffffffffffffffffffffffffffffffffffffff82169050919050565b6000620001608262000133565b9050919050565b620001728162000153565b81146200017e57600080fd5b50565b600081519050620001928162000167565b92915050565b6000819050919050565b620001ad8162000198565b8114620001b957600080fd5b50565b600081519050620001cd81620001a2565b92915050565b6000819050919050565b620001e881620001d3565b8114620001f457600080fd5b50565b6000815190506200020881620001dd565b92915050565b600067ffffffffffffffff82169050919050565b6200022d816200020e565b81146200023957600080fd5b50565b6000815190506200024d8162000222565b92915050565b600063ffffffff82169050919050565b6200026e8162000253565b81146200027a57600080fd5b50565b6000815190506200028e8162000263565b92915050565b60008060008060008060c08789031215620002b457620002b36200012e565b5b6000620002c489828a0162000181565b9650506020620002d789828a01620001bc565b9550506040620002ea89828a01620001f7565b9450506060620002fd89828a016200023c565b93505060806200031089828a016200027d565b92505060a06200032389828a01620001bc565b9150509295509295509295565b7f4e487b7100000000000000000000000000000000000000000000000000000000600052602160045260246000fd5b60805160a05160c05160e0516101005161012051610140516113c5620003cf6000396000818161083901526108e2015260006106a50152600061068201526000610661015260006106250152600081816102fa01526103f7015260008181610337015261038b01526113c56000f3fe6080604052600436106100c25760003560e01c8063460e20491161007f578063565429de11610059578063565429de146102375780635f1b0fd8146102625780636e04ff0d1461028d57806391ad27b4146102cb576100c2565b8063460e2049146101a4578063473f1ddc146101e157806353a2c19a1461020c576100c2565b806309bc33a7146100c7578063115cbaf5146100f25780631fe543e31461011d5780632cfcc53914610146578063320229eb146101505780634585e33b1461017b575b600080fd5b3480156100d357600080fd5b506100dc6102f6565b6040516100e99190610bf7565b60405180910390f35b3480156100fe57600080fd5b5061010761031e565b6040516101149190610c89565b60405180910390f35b34801561012957600080fd5b50610144600480360381019061013f9190610e3d565b610335565b005b61014e6103f5565b005b34801561015c57600080fd5b50610165610564565b6040516101729190610bf7565b60405180910390f35b34801561018757600080fd5b506101a2600480360381019061019d9190610f4e565b61056e565b005b3480156101b057600080fd5b506101cb60048036038101906101c69190610f97565b61075d565b6040516101d89190611005565b60405180910390f35b3480156101ed57600080fd5b506101f66107a4565b6040516102039190611005565b60405180910390f35b34801561021857600080fd5b506102216107ce565b60405161022e9190610bf7565b60405180910390f35b34801561024357600080fd5b5061024c6107dd565b6040516102599190610bf7565b60405180910390f35b34801561026e57600080fd5b506102776107e9565b6040516102849190610bf7565b60405180910390f35b34801561029957600080fd5b506102b460048036038101906102af9190610f4e565b6107f6565b6040516102c29291906110ba565b60405180910390f35b3480156102d757600080fd5b506102e06108de565b6040516102ed9190610bf7565b60405180910390f35b60007f0000000000000000000000000000000000000000000000000000000000000000905090565b6000600160149054906101000a900460ff16905090565b7f000000000000000000000000000000000000000000000000000000000000000073ffffffffffffffffffffffffffffffffffffffff163373ffffffffffffffffffffffffffffffffffffffff16146103e757337f00000000000000000000000000000000000000000000000000000000000000006040517f1cf993f40000000000000000000000000000000000000000000000000000000081526004016103de9291906110ea565b60405180910390fd5b6103f18282610906565b5050565b7f000000000000000000000000000000000000000000000000000000000000000034101561044f576040517f3df1df2400000000000000000000000000000000000000000000000000000000815260040160405180910390fd5b6000600181111561046357610462610c12565b5b600160149054906101000a900460ff16600181111561048557610484610c12565b5b146104bc576040517f1425571c00000000000000000000000000000000000000000000000000000000815260040160405180910390fd5b6000339080600181540180825580915050600190039060005260206000200160009091909190916101000a81548173ffffffffffffffffffffffffffffffffffffffff021916908373ffffffffffffffffffffffffffffffffffffffff1602179055503373ffffffffffffffffffffffffffffffffffffffff167f0805e1d667bddb8a95f0f09880cf94f403fb596ce79928d9f29b74203ba284d460405160405180910390a2565b6000600254905090565b6000610588604051806020016040528060008152506107f6565b509050806105f75747600080549050600160149054906101000a900460ff1660018111156105b9576105b8610c12565b5b6040517f584327aa0000000000000000000000000000000000000000000000000000000081526004016105ee93929190611113565b60405180910390fd5b60018060146101000a81548160ff0219169083600181111561061c5761061b610c12565b5b021790555060007f000000000000000000000000000000000000000000000000000000000000000073ffffffffffffffffffffffffffffffffffffffff16635d3b1d307f00000000000000000000000000000000000000000000000000000000000000007f000000000000000000000000000000000000000000000000000000000000000060037f000000000000000000000000000000000000000000000000000000000000000060016040518663ffffffff1660e01b81526004016106e69594939291906111c2565b6020604051808303816000875af1158015610705573d6000803e3d6000fd5b505050506040513d601f19601f82011682018060405250810190610729919061122a565b9050807fcd6e45c8998311cab7e9d4385596cac867e20a0587194b954fa3a731c93ce78b60405160405180910390a2505050565b600080828154811061077257610771611257565b5b9060005260206000200160009054906101000a900473ffffffffffffffffffffffffffffffffffffffff169050919050565b6000600160009054906101000a900473ffffffffffffffffffffffffffffffffffffffff16905090565b6000600163ffffffff16905090565b60008080549050905090565b6000600361ffff16905090565b600060606000600160149054906101000a900460ff16600181111561081e5761081d610c12565b5b6000600181111561083257610831610c12565b5b14905060007f00000000000000000000000000000000000000000000000000000000000000006002544261086691906112b5565b119050600080600080549050119050600080471190508380156108865750825b801561088f5750815b80156108985750805b9550856040518060400160405280600381526020017f30783000000000000000000000000000000000000000000000000000000000008152509550955050505050915091565b60007f0000000000000000000000000000000000000000000000000000000000000000905090565b600080805490508260008151811061092157610920611257565b5b60200260200101516109339190611318565b9050600080828154811061094a57610949611257565b5b9060005260206000200160009054906101000a900473ffffffffffffffffffffffffffffffffffffffff16905080600160006101000a81548173ffffffffffffffffffffffffffffffffffffffff021916908373ffffffffffffffffffffffffffffffffffffffff1602179055506000600160146101000a81548160ff021916908360018111156109de576109dd610c12565b5b0217905550600067ffffffffffffffff8111156109fe576109fd610cfa565b5b604051908082528060200260200182016040528015610a2c5781602001602082028036833780820191505090505b5060009080519060200190610a42929190610b37565b504260028190555060008173ffffffffffffffffffffffffffffffffffffffff1647604051610a709061137a565b60006040518083038185875af1925050503d8060008114610aad576040519150601f19603f3d011682016040523d82523d6000602084013e610ab2565b606091505b5050905080610aed576040517fa1d04b3900000000000000000000000000000000000000000000000000000000815260040160405180910390fd5b8173ffffffffffffffffffffffffffffffffffffffff167fc4f66fdc5d5cb423ab0e5f082d6f9de2b6c9d481da703fffc7b6ab257e4b0c8760405160405180910390a25050505050565b828054828255906000526020600020908101928215610bb0579160200282015b82811115610baf5782518260006101000a81548173ffffffffffffffffffffffffffffffffffffffff021916908373ffffffffffffffffffffffffffffffffffffffff16021790555091602001919060010190610b57565b5b509050610bbd9190610bc1565b5090565b5b80821115610bda576000816000905550600101610bc2565b5090565b6000819050919050565b610bf181610bde565b82525050565b6000602082019050610c0c6000830184610be8565b92915050565b7f4e487b7100000000000000000000000000000000000000000000000000000000600052602160045260246000fd5b60028110610c5257610c51610c12565b5b50565b6000819050610c6382610c41565b919050565b6000610c7382610c55565b9050919050565b610c8381610c68565b82525050565b6000602082019050610c9e6000830184610c7a565b92915050565b6000604051905090565b600080fd5b600080fd5b610cc181610bde565b8114610ccc57600080fd5b50565b600081359050610cde81610cb8565b92915050565b600080fd5b6000601f19601f8301169050919050565b7f4e487b7100000000000000000000000000000000000000000000000000000000600052604160045260246000fd5b610d3282610ce9565b810181811067ffffffffffffffff82111715610d5157610d50610cfa565b5b80604052505050565b6000610d64610ca4565b9050610d708282610d29565b919050565b600067ffffffffffffffff821115610d9057610d8f610cfa565b5b602082029050602081019050919050565b600080fd5b6000610db9610db484610d75565b610d5a565b90508083825260208201905060208402830185811115610ddc57610ddb610da1565b5b835b81811015610e055780610df18882610ccf565b845260208401935050602081019050610dde565b5050509392505050565b600082601f830112610e2457610e23610ce4565b5b8135610e34848260208601610da6565b91505092915050565b60008060408385031215610e5457610e53610cae565b5b6000610e6285828601610ccf565b925050602083013567ffffffffffffffff811115610e8357610e82610cb3565b5b610e8f85828601610e0f565b9150509250929050565b600080fd5b600067ffffffffffffffff821115610eb957610eb8610cfa565b5b610ec282610ce9565b9050602081019050919050565b82818337600083830152505050565b6000610ef1610eec84610e9e565b610d5a565b905082815260208101848484011115610f0d57610f0c610e99565b5b610f18848285610ecf565b509392505050565b600082601f830112610f3557610f34610ce4565b5b8135610f45848260208601610ede565b91505092915050565b600060208284031215610f6457610f63610cae565b5b600082013567ffffffffffffffff811115610f8257610f81610cb3565b5b610f8e84828501610f20565b91505092915050565b600060208284031215610fad57610fac610cae565b5b6000610fbb84828501610ccf565b91505092915050565b600073ffffffffffffffffffffffffffffffffffffffff82169050919050565b6000610fef82610fc4565b9050919050565b610fff81610fe4565b82525050565b600060208201905061101a6000830184610ff6565b92915050565b60008115159050919050565b61103581611020565b82525050565b600081519050919050565b600082825260208201905092915050565b60005b8381101561107557808201518184015260208101905061105a565b60008484015250505050565b600061108c8261103b565b6110968185611046565b93506110a6818560208601611057565b6110af81610ce9565b840191505092915050565b60006040820190506110cf600083018561102c565b81810360208301526110e18184611081565b90509392505050565b60006040820190506110ff6000830185610ff6565b61110c6020830184610ff6565b9392505050565b60006060820190506111286000830186610be8565b6111356020830185610be8565b6111426040830184610be8565b949350505050565b6000819050919050565b61115d8161114a565b82525050565b600067ffffffffffffffff82169050919050565b61118081611163565b82525050565b600061ffff82169050919050565b61119d81611186565b82525050565b600063ffffffff82169050919050565b6111bc816111a3565b82525050565b600060a0820190506111d76000830188611154565b6111e46020830187611177565b6111f16040830186611194565b6111fe60608301856111b3565b61120b60808301846111b3565b9695505050505050565b60008151905061122481610cb8565b92915050565b6000602082840312156112405761123f610cae565b5b600061124e84828501611215565b91505092915050565b7f4e487b7100000000000000000000000000000000000000000000000000000000600052603260045260246000fd5b7f4e487b7100000000000000000000000000000000000000000000000000000000600052601160045260246000fd5b60006112c082610bde565b91506112cb83610bde565b92508282039050818111156112e3576112e2611286565b5b92915050565b7f4e487b7100000000000000000000000000000000000000000000000000000000600052601260045260246000fd5b600061132382610bde565b915061132e83610bde565b92508261133e5761133d6112e9565b5b828206905092915050565b600081905092915050565b50565b6000611364600083611349565b915061136f82611354565b600082019050919050565b600061138582611357565b915081905091905056fea2646970667358221220017c11bf44cf000c2683884f7c01ac80735505db7512603824a94e67c5803bd864736f6c63430008120033",
  "linkReferences": {},
  "deployedLinkReferences": {}
}